:100000000C945D000C9485000C9485000C94850084
:100010000C9485000C9485000C9485000C9485004C
:100020000C9485000C943E060C9485000C9485007D
:100030000C9485000C9485000C9485000C9485002C
:100040000C94F4050C9485000C9485000C948500A8
:100050000C9485000C94C2060C9485000C948500C9
:100060000C9485000C94850000000007000201003C
:100070000003040600000000000000000000000073
:10008000250028002B0000000000240027002A0083
:10009000040404040404040402020202020203032E
:1000A0000303030301020408102040800102040836
:1000B0001020010204081020000711241FBECFEFFA
:1000C000D8E0DEBFCDBF11E0A0E0B1E0ECEBF0E1A5
:1000D00002C005900D92AE34B107D9F721E0AEE42D
:1000E000B1E001C01D92A93CB207E1F710E0CDE5F7
:1000F000D0E004C02197FE010E945608CC35D107FC
:10010000C9F70E9439070C9409080C94000090E08C
:10011000FC01EC55FF4F2491FC01E057FF4F849107
:10012000882399F090E0880F991FFC01EA57FF4F50
:10013000A591B491FC01E458FF4F859194918FB73C
:10014000F894EC91E22BEC938FBF08950895CF9231
:10015000DF92EF92FF920F931F93CF93DF936C0187
:10016000EB017B01E40EF51E00E010E0CE15DF058B
:1001700061F06991D601ED91FC910190F081E02D43
:10018000C6010995080F191FF1CFC801DF91CF9162
:100190001F910F91FF90EF90DF90CF90089590E026
:1001A000FC01E859FF4F2491FC01EC55FF4F3491BD
:1001B000FC01E057FF4FE491EE2309F43CC02223F9
:1001C00039F1233091F038F42130A9F0223001F5D3
:1001D00084B58F7D12C0263091F02730A1F02430F5
:1001E000B9F4809180008F7D03C0809180008F776B
:1001F000809380000DC084B58F7784BD09C0809145
:10020000B0008F7703C08091B0008F7D8093B000E5
:10021000F0E0EE0FFF1FE458FF4FA591B4919FB798
:10022000F894611104C08C913095382302C0EC9190
:100230003E2B3C939FBF0895CF93DF93EC018AE060
:100240000E948700209711F460E004C0CF3FD105E1
:1002500031F461E08AE0DF91CF910C94CF00E2E7C6
:10026000F0E0E491E330F9F048F4E130B9F0E23045
:10027000A1F584B5806284BDC8BD34C0E630E9F024
:10028000E73019F1E43049F5809180008062809375
:100290008000D0938B00C0938A0024C084B580680E
:1002A00084BDC7BD1FC0809180008068809380009E
:1002B000D0938900C093880015C08091B0008068F9
:1002C0008093B000C093B3000DC08091B0008062F5
:1002D0008093B000C093B40005C0C038D1050CF0C5
:1002E000B8CFB2CFDF91CF910895789484B5826072
:1002F00084BD84B5816084BD85B5826085BD85B5CA
:10030000816085BDEEE6F0E0808181608083E1E878
:10031000F0E01082808182608083808181608083B0
:10032000E0E8F0E0808181608083E1EBF0E08081B3
:1003300084608083E0EBF0E0808181608083EAE785
:10034000F0E080818460808380818260808380810E
:10035000816080838081806880831092C1000895CD
:10036000019739F0880F991F880F991F02970197FD
:10037000F1F70895CF93DF93EC0160E08E810E9446
:10038000CF0081E090E00E94B00161E08E810E9488
:10039000CF0081E090E00E94B00160E08E810E9479
:1003A000CF0084E690E0DF91CF910C94B001AF9242
:1003B000BF92CF92DF92EF92FF920F931F93CF9352
:1003C000DF935C017C0187E0E80EF11CC0E0D0E027
:1003D000062F10E06701F70181917F010E948700DD
:1003E000B8010C2E02C0759567950A94E2F761700A
:1003F000F60180810E94CF002196C430D10551F7CB
:10040000C501DF91CF911F910F91FF90EF90DF9089
:10041000CF90BF90AF900C94BA01AF92BF92CF92A1
:10042000DF92EF92FF920F931F93CF93DF93EC0134
:10043000F62E642F8C810E94CF008D818F3F19F0A2
:1004400060E00E94CF008F850F2D10E084FF2CC04C
:100450005E0187E0A80EB11CE12CF12C6501F501CD
:1004600081915F010E948700B8010E2C02C0759532
:1004700067950A94E2F76170F60180810E94CF00CF
:10048000FFEFEF1AFF0A88E0E816F10439F7CE0112
:10049000DF91CF911F910F91FF90EF90DF90CF9060
:1004A000BF90AF900C94BA01B80184E07595679540
:1004B0008A95E1F7CE010E94D7016F2DCE01DF9121
:1004C000CF911F910F91FF90EF90DF90CF90BF9051
:1004D000AF900C94D70140E0682F84EB91E00C942E
:1004E0000D0281E00E946B0280ED97E00C94B00158
:1004F000823028F09091C30198609093C30180935B
:10050000C7011092C80180E593EC0E94B00160E041
:100510008091B8010E94CF0060E08091BA010E94F2
:10052000CF008091B9018F3F19F060E00E94CF00A9
:100530008091C30184FD21C063E084EB91E00E94BF
:10054000D70184E991E10E94B00163E084EB91E07E
:100550000E94D70184E991E10E94B00163E084EB3D
:1005600091E00E94D70186E990E00E94B00162E02C
:1005700084EB91E00E94D70115C080620E946B025B
:1005800084E991E10E94B0018091C30180620E94E0
:100590006B0286E990E00E94B0018091C301806205
:1005A0000E946B028091C30180620E946B0284E012
:1005B0008093C4018CE00E946B020E94710282E071
:1005C0008093C50186E00C946B02CF93DF93CDB787
:1005D000DEB728970FB6F894DEBF0FBECDBF98E008
:1005E000E4E0F1E0DE01119601900D929A95E1F7B9
:1005F0009091C701891710F08FEF890FFE01319696
:10060000E80FF11DE80FF11D8081806828960FB674
:10061000F894DEBF0FBECDBFDF91CF910C946B027B
:1006200041E00E940D0281E090E00895F8948091ED
:10063000530181110BC080915B0190915C019093FB
:1006400052018093510181E0809353017894089581
:10065000E09150018091580190915901EE0FFF0BEC
:10066000E956FE4F9183808380915001893019F4BF
:10067000109250010895809150018F5F8093500136
:1006800008950E94280383B5826083BDF894109278
:1006900059011092580180915B0190915C019093F7
:1006A0000101809300017894089581E080935A01BC
:1006B00010920201EFE5F1E08BE693E093838283F1
:1006C00088E293E09583848386EA90E0938782872B
:1006D000958B848B08951092570110925A0181E0F6
:1006E00080930201EFE5F1E085E593E09383828357
:1006F00081E493E09583848386E895E093878287FD
:1007000086E193E0958B848B0895CF93DF9380915E
:1007100078002091790090E0922B8E319105C0F005
:100720009C012E5131092E3B3105A8F02E5B310979
:100730002C38310598F02C5831092F3A310588F0C2
:1007400087519240813E910500F5C4E0D0E00BC096
:10075000C3E0D0E008C0C0E0D0E005C0C1E0D0E018
:1007600002C0C2E0D0E08BE691E0019649F0FE01C4
:10077000EE0FFF1FE559FE4F0190F081E02D099526
:10078000D0936001C0935F011DC08BE691E001969C
:10079000C9F080915F01909160018F3F910561F0F8
:1007A000E0915F01F0916001EE0FFF1FEF59FE4FE6
:1007B0000190F081E02D09958FEF90E0909360011A
:1007C00080935F01DF91CF9108958FB7F8942091C6
:1007D0004E0130914F011216130684F480914E01A0
:1007E00090914F01019790934F0180934E0180911A
:1007F0004E0190914F01892B21F402C087FF01C067
:10080000789408958FB7F89420914E0130914F015C
:10081000232B11F487FD08C020914E0130914F0128
:10082000232B59F087FD09C080914E0190914F0113
:10083000019690934F0180934E010895009799F08F
:10084000FC0101900020E9F73197AF01481B590BDB
:10085000E091B401F091B5010280F381E02DBC017B
:1008600084EB91E0099480E090E008950C941E04DC
:1008700081E0809355018093020110925A01E1EBCF
:10088000F0E080818760808380E00E94E5020E9422
:10089000710284E191E00E943604EFE5F1E085E524
:1008A00093E09383828381E493E09583848386E855
:1008B00095E09387828786E193E0958B848B0895FA
:1008C0004F925F926F927F92AF92BF92CF92DF92E0
:1008D000EF92FF920F931F93CF93DF93CDB7DEB7C5
:1008E000A1970FB6F894DEBF0FBECDBF6C01990F74
:1008F000EE08FF08F7FE3FC0E091B401F091B501AA
:100900000190F081E02D6DE284EB91E009958C017E
:10091000F094E094D094C094C11CD11CE11CF11C53
:1009200019A29E012F5D3F4F59013AE0432E512CF1
:10093000612C712CC701B601A30192010E9420080D
:100940008C2D9AE0299F80191124E1E0AE1AB1089C
:100950008A3014F4805D01C0895CF50180836901EF
:100960007A01232B242B252B29F7C5010E941E0475
:10097000800F911F2AC01C2D7D2DC70119A29E0139
:100980002F5D3F4F79012AE0422E512C612C712CB2
:10099000612FA30192010E9420088AE0289F10196C
:1009A000112491E0E91AF1081A3014F4105D01C025
:1009B000195CF7011083122F732FCA01232B242BEC
:1009C000252B31F7C7010E941E04A1960FB6F8949B
:1009D000DEBF0FBECDBFDF91CF911F910F91FF9072
:1009E000EF90DF90CF90BF90AF907F906F905F902F
:1009F0004F9008950E94710283E291E00E943604B4
:100A000080910301082E000C990B0E9460048CE277
:100A100091E00E94360481E00E94E5028EE291E0BE
:100A20000E94360480915801909159010E946004FF
:100A300081E291E00E94360480E00C94E50280910E
:100A4000030185312CF080910301845180930301CF
:100A5000209103013FEF2303C001112464E670E0FD
:100A60000E940C08CB010E941C010E94FA04F89419
:100A700010925601789408958091030184362CF4E5
:100A8000809103018C5E80930301209103013FEF6D
:100A90002303C001112464E670E00E940C08CB011E
:100AA0000E941C010E94FA04F89410925601789456
:100AB00008950E94710287E391E00E9436048091BC
:100AC0005401082E000C990B01960E94600484E3E7
:100AD00091E00E943604E0915401EE0FFF0BE956BD
:100AE000FE4F80819181019669F0E0915401EE0FF3
:100AF000FF0BE956FE4F808191810E94600481E2E4
:100B000091E002C08FE391E00C943604F894809158
:100B10005B0190915C011092530178941092020154
:100B20002091510130915201821B930B03975CF489
:100B30000E94590586EE95E09093620180936101D1
:100B400089ED95E021C00E94FA0481E00E94E5024F
:100B50008EE291E00E9436048091580190915901F3
:100B60000E94600481E291E00E94360480E00E94CD
:100B7000E50281E0809357018CE395E09093620158
:100B8000809361018FE195E090936401809363010C
:100B90008BE693E090936A018093690186EA90E086
:100BA000909374018093730110925201109251013D
:100BB000089580915401811102C089E003C08091A1
:100BC00054018150809354010C9459058091540133
:100BD000893019F41092540105C0809154018F5F3F
:100BE000809354010C9459051F920F920FB60F92E7
:100BF00011242F933F938F939F93AF93BF93809133
:100C0000B0019091B101A091B201B091B3013091C6
:100C1000AF0123E0230F2D3720F40196A11DB11D54
:100C200005C026E8230F0296A11DB11D2093AF0138
:100C30008093B0019093B101A093B201B093B3013E
:100C40008091AB019091AC01A091AD01B091AE014A
:100C50000196A11DB11D8093AB019093AC01A093AF
:100C6000AD01B093AE01BF91AF919F918F913F9134
:100C70002F910F900FBE0F901F9018951F920F92FB
:100C80000FB60F9211242F933F934F935F936F935F
:100C90007F938F939F93AF93BF93EF93FF93809135
:100CA0005D018F5F80935D0180915D018E3309F05E
:100CB00058C010925D0180915B0190915C0101969A
:100CC00090935C0180935B0180915A018823A1F08D
:100CD0008091580190915901019690935901809308
:100CE00058010E9471028EE291E00E9436048091C8
:100CF0005801909159011DC080910201882301F192
:100D00000E94710281E491E00E943604809100010A
:100D100090910101019619F480E090E00AC0809161
:100D20005B0190915C012091000130910101821BD7
:100D3000930B0E94600481E291E00E94360411C08E
:100D400080915701882369F0809156018F5F8093CD
:100D5000560180915601853021F4109256010E946F
:100D60006B03FF91EF91BF91AF919F918F917F9115
:100D70006F915F914F913F912F910F900FBE0F9008
:100D80001F9018951F920F920FB60F9211242F9358
:100D90003F934F935F936F937F938F939F93AF9303
:100DA000BF93EF93FF930E9402042091960120319C
:100DB000A0F480915E0190E0FC01EE0FFF1FEB5864
:100DC000FE4F45E853E05183408301968F70992789
:100DD00080935E012F5F209396010E94E503FF91AF
:100DE000EF91BF91AF919F918F917F916F915F91A3
:100DF0004F913F912F910F900FBE0F901F9018951C
:100E00001092B7011092B60180E191E09093B50184
:100E10008093B40188E08093B8018FEF8093B9018B
:100E200089E08093BA0184E08093BB0185E08093E0
:100E3000BC0186E08093BD0187E08093BE011092E3
:100E4000BF011092C0011092C1011092C20188E04E
:100E50000E9487008091B9018F3F11F00E948700A6
:100E60008091BA010E9487001092C30181E00C9426
:100E700078020E9475018AE00E94870080E090E07D
:100E80002FEF3FEFFC01EE0FFF1FE956FE4F3183BE
:100E9000208301968A309105A9F782E00E947802AA
:100EA000209103013FEF2303C001112464E670E0A9
:100EB0000E940C08CB010E941C011092B0001092FD
:100EC000B100809170008160809370008FEF90E09E
:100ED0009093600180935F0180E090E04FEF5FEFBF
:100EE0009C012F5F3F4FF901EE0FFF1FE15AFE4FAC
:100EF00051834083880F991FFC01E559FE4F5183B0
:100F00004083C9012530310559F71092950110929F
:100F10005E011092960180917A00876080937A003A
:100F200080917C00806480937C0080917C008F7D28
:100F300080937C0080917A00806280937A00809117
:100F40007A00806880937A0080917A00886080932C
:100F50007A0080917B00887F80937B0078948091D9
:100F60007A00806480937A0086EA90E090936C0126
:100F700080936B0190936E0180936D019093740147
:100F8000809373019093680180936701909372013D
:100F90008093710190936601809365019093700135
:100FA00080936F0188E394E09093620180936101E4
:100FB000909364018093630190936A018093690127
:100FC00090937401809373010E94020480919601B2
:100FD0008823E1F00E94E503E0919501F0E0EE0F37
:100FE000FF1FEB58FE4F0190F081E02D09950E9404
:100FF00002048091950190E001968F70992780936B
:101000009501809196018150809396010E94E5039D
:10101000DBCFF8940C945C0897FB072E16F4009431
:1010200007D077FD09D00E94420807FC05D03EF4A6
:10103000909581959F4F0895709561957F4F089584
:10104000A1E21A2EAA1BBB1BFD010DC0AA1FBB1FCC
:10105000EE1FFF1FA217B307E407F50720F0A21B3E
:10106000B30BE40BF50B661F771F881F991F1A94AB
:1010700069F760957095809590959B01AC01BD01D5
:10108000CF010895AA1BBB1B51E107C0AA1FBB1FBC
:10109000A617B70710F0A61BB70B881F991F5A9504
:1010A000A9F780959095BC01CD010895EE0FFF1F23
:0C10B0000590F491E02D0994F894FFCF16
:1010BC00FFFF01500000400014005400000000002D
:1010CC001003A700526573657420686163653A204C
:1010DC003073004272696C6C6F3A200025004375C6
:1010EC00656E74613A20005469656D706F20002D37
:0E10FC0000526573657420686163653A2000D8
:00000001FF
