:100000000C945D000C9485000C9485000C94850084
:100010000C9485000C9485000C9485000C9485004C
:100020000C9485000C94B9060C9485000C94850002
:100030000C9485000C9485000C9485000C9485002C
:100040000C946F060C9485000C9485000C9485002C
:100050000C9485000C943D070C9485000C9485004D
:100060000C9485000C94850000000008000201003B
:100070000003040700000000000000000000000072
:10008000250028002B0000000000240027002A0083
:10009000040404040404040402020202020203032E
:1000A0000303030301020408102040800102040836
:1000B00010200102040810207B0711241FBECFEF7F
:1000C000D8E0DEBFCDBF11E0A0E0B1E0EEEEF1E19F
:1000D00002C005900D92AC38B107D9F722E0ACE828
:1000E000B1E001C01D92AA30B207E1F710E0CDE502
:1000F000D0E004C02197FE010E94EF08CC35D10763
:10010000C9F70E9499070C949D080C94000090E098
:10011000FC01EC55FF4F2491FC01E057FF4F849107
:10012000882399F090E0880F991FFC01EA57FF4F50
:10013000A591B491FC01E458FF4F859194918FB73C
:10014000F894EC91E22BEC938FBF0895E091F201CB
:10015000F091F3010190F081E02D682F82EF91E0A2
:100160000994CF92DF92EF92FF920F931F93CF9358
:10017000DF936C017A018B01C0E0D0E0CE15DF0582
:1001800081F0D8016D918D01D601ED91FC91019026
:10019000F081E02DC6010995892B11F02196EECF53
:1001A0007E01C701DF91CF911F910F91FF90EF90DA
:1001B000DF90CF900895089580E090E0089590E05A
:1001C000FC01E859FF4F2491FC01EC55FF4F34919D
:1001D000FC01E057FF4FE491EE2309F43CC02223D9
:1001E00039F1233091F038F42130A9F0223001F5B3
:1001F00084B58F7D12C0273091F02830A1F02430D3
:10020000B9F4809180008F7D03C0809180008F774A
:10021000809380000DC084B58F7784BD09C0809124
:10022000B0008F7703C08091B0008F7D8093B000C5
:10023000F0E0EE0FFF1FE458FF4FA591B4919FB778
:10024000F894611104C08C913095382302C0EC9170
:100250003E2B3C939FBF0895CF93DF93EC018AE040
:100260000E948700209711F460E004C0CF3FD105C1
:1002700031F461E08AE0DF91CF910C94DF00E2E796
:10028000F0E0E491E330F9F048F4E130B9F0E23025
:10029000A1F584B5806284BDC8BD34C0E730E9F003
:1002A000E83019F1E43049F5809180008062809354
:1002B0008000D0938B00C0938A0024C084B58068EE
:1002C00084BDC7BD1FC0809180008068809380007E
:1002D000D0938900C093880015C08091B0008068D9
:1002E0008093B000C093B3000DC08091B0008062D5
:1002F0008093B000C093B40005C0C038D1050CF0A5
:10030000B8CFB2CFDF91CF910895789484B5826051
:1003100084BD84B5816084BD85B5826085BD85B5A9
:10032000816085BDEEE6F0E0808181608083E1E858
:10033000F0E0108280818260808380818160808390
:10034000E0E8F0E0808181608083E1EBF0E0808193
:1003500084608083E0EBF0E0808181608083EAE765
:10036000F0E08081846080838081826080838081EE
:10037000816080838081806880831092C1000895AD
:100380008230910538F0880F991F880F991F0597C3
:100390000197F1F70895CF93DF93EC0160E08E8130
:1003A0000E94DF0081E090E00E94C00161E08E8148
:1003B0000E94DF0081E090E00E94C00160E08E8139
:1003C0000E94DF0084E690E0DF91CF910C94C001A1
:1003D000CF92DF92EF92FF920F931F93CF93DF9311
:1003E0006C017C0187E0E80EF11CC0E0D0E0062F34
:1003F00010E0B8010C2E02C0759567950A94E2F7DB
:100400006170F70181917F010E94DF002196C43065
:10041000D10579F7C601DF91CF911F910F91FF9020
:10042000EF90DF90CF900C94CB01CF92DF92EF92C0
:10043000FF920F931F93CF93DF93EC01F62E642F5F
:100440008C810E94DF008D818F3F19F060E00E9457
:10045000DF008F850F2D10E084FF25C06E0187E03F
:10046000C80ED11CE12CF12CB8010E2C02C07595E0
:1004700067950A94E2F76170F60181916F010E941D
:10048000DF00FFEFEF1AFF0A88E0E816F10461F7DA
:10049000CE01DF91CF911F910F91FF90EF90DF90F0
:1004A000CF900C94CB01B80184E0759567958A953F
:1004B000E1F7CE010E94E8016F2DCE01DF91CF91CF
:1004C0001F910F91FF90EF90DF90CF900C94E80177
:1004D00040E0682F82EF91E00C94150281E00E94C9
:1004E000680280ED97E00C94C001CF93DF938230D7
:1004F00028F0909101029860909301028093050288
:100500001092060280E48093070280E18093080243
:1005100080E5809309028091F6010E948700809116
:10052000F7018F3F11F00E9487008091F8010E942F
:100530008700C2EFD1E09E01225F3140809101022D
:1005400084FD03C084E090E002C088E090E0219642
:100550002817390724F48E810E948700ECCF80E5AC
:1005600093EC0E94C00160E08091F6010E94DF00E0
:1005700060E08091F8010E94DF008091F7018F3FD9
:1005800019F060E00E94DF008091010284FD21C02B
:1005900063E082EF91E00E94E80184E991E10E942A
:1005A000C00163E082EF91E00E94E80184E991E1FB
:1005B0000E94C00163E082EF91E00E94E80186E9B9
:1005C00090E00E94C00162E082EF91E00E94E801A9
:1005D00015C080620E94680284E991E10E94C00116
:1005E0008091010280620E94680286E990E00E9488
:1005F000C0018091010280620E9468028091010224
:1006000080620E94680284E0809302028CE00E9473
:1006100068020E946E0282E08093030286E0DF910E
:10062000CF910C946802643008F063E09091050269
:10063000691710F06FEF690FE62FF0E0EE50FE4FF4
:100640009489890F80680C94680241E00E94150229
:1006500081E090E008953FB7F8948091EE01909189
:10066000EF01A091F001B091F10126B5A89B05C062
:100670002F3F19F00196A11DB11D3FBFBA2FA92F21
:10068000982F8827820F911DA11DB11DBC01CD019E
:1006900042E0660F771F881F991F4A95D1F708958A
:1006A0008F929F92AF92BF92CF92DF92EF92FF9282
:1006B0006B017C010E942B034B015C01C114D1042E
:1006C000E104F104F1F00E942B03DC01CB01881955
:1006D0009909AA09BB09883E9340A105B10570F3A9
:1006E00021E0C21AD108E108F10888EE880E83E003
:1006F000981EA11CB11CC114D104E104F10419F726
:10070000DDCFFF90EF90DF90CF90BF90AF909F90A4
:100710008F900895089581E08093B70110920201AF
:10072000EEEBF1E080EE93E09383828383EB93E042
:10073000958384838AE893E093878287958B848B63
:100740000895F8948091B10181110BC08091B80196
:100750009091B9019093B0018093AF0181E08093B3
:10076000B10178940895E091AE018091B501909126
:10077000B601EE0FFF0BEB52FE4F91838083809109
:10078000AE01893019F41092AE0108958091AE0146
:100790008F5F8093AE0108950E94B30383B582609A
:1007A00083BDF8941092B6011092B5018091B80102
:1007B0009091B9019093010180930001789408957C
:1007C0001092B4011092B70181E080930201EEEB28
:1007D000F1E08BE893E0938382838CEC93E0958344
:1007E00084838DEF95E09387828781EA93E0958BF0
:1007F000848B0895CF93DF938091780020917900C6
:1008000090E0922B85309105C0F09C012550310974
:10081000273D3105A8F0275D31092C38310598F0C6
:100820002C5831092F3A310588F087519240813E8A
:10083000910500F5C4E0D0E00BC0C3E0D0E008C0F3
:10084000C0E0D0E005C0C1E0D0E002C0C2E0D0E02E
:100850008AEC91E0019649F0FE01EE0FFF1FE6538E
:10086000FE4F0190F081E02D0995D093BF01C09318
:10087000BE011DC08AEC91E00196C9F08091BE01D5
:100880009091BF018F3F910561F0E091BE01F09121
:10089000BF01EE0FFF1FE054FE4F0190F081E02DED
:1008A00009958FEF90E09093BF018093BE01DF9197
:1008B000CF9108958FB7F89420918C0130918D01DC
:1008C0001216130684F480918C0190918D0101978A
:1008D00090938D0180938C0180918C0190918D017A
:1008E000892B21F402C087FF01C0789408958FB747
:1008F000F89420918C0130918D01232B11F487FD08
:1009000008C020918C0130918D01232B59F087FD77
:1009100009C080918C0190918D01019690938D0179
:1009200080938C0108950E9477048091BB018823F5
:10093000E1F00E945A04E091BD01F0E0EE0FFF1FCC
:10094000E257FE4F0190F081E02D09950E94770457
:100950008091BD0190E001968F7099278093BD0131
:100960008091BB0181508093BB010E945A0481E0B9
:100970000895009799F0FC0101900020E9F7319764
:10098000AF01481B590BE091F201F091F301028095
:10099000F381E02DBC0182EF91E0099480E090E0CA
:1009A00008950C94B90481E08093D40180930201EE
:1009B0001092B701E1EBF0E080818760808360E016
:1009C00080E00E9413030E946E0281E591E00E9484
:1009D000D104EEEBF1E08BE893E0938382838CEC1F
:1009E00093E0958384838DEF95E09387828781EAF6
:1009F00093E0958B848B08958F929F92AF92BF92D4
:100A0000CF92DF92EF92FF920F931F93CF93DF93DA
:100A1000CDB7DEB7A1970FB6F894DEBF0FBECDBF3E
:100A20006C01990FEE08FF08F7FE29C08DE20E94C5
:100A3000A6008C0122273327A9012C193D094E0954
:100A40005F0919A2CE0181967C019AE0892E912C32
:100A5000A12CB12CCA01B901A50194010E94B908C9
:100A6000605DF70162937F01211531054105510554
:100A700089F7CF010E94B904800F911F1DC0A70103
:100A8000960119A28E010F5D1F4F8AE0C82ED12C4E
:100A9000E12CF12CCA01B901A70196010E94B90805
:100AA000605DF80162938F01211531054105510503
:100AB00089F7CF010E94B904A1960FB6F894DEBF62
:100AC0000FBECDBFDF91CF911F910F91FF90EF909F
:100AD000DF90CF90BF90AF909F908F9008950E942D
:100AE0006E0280E691E00E94D10480910301082EFD
:100AF000000C990B0E94FC0489E691E00E94D1044D
:100B000061E080E00E9413038BE691E00E94D10433
:100B10008091B5019091B6010E94FC048EE591E0B0
:100B20000E94D10460E080E00C94130380910301E3
:100B300085312CF080910301845180930301209131
:100B400003013FEF2303C001112464E670E00E941B
:100B5000A508CB010E942C010E946F05F894109209
:100B6000B301789408958091030184362CF4809128
:100B700003018C5E80930301209103013FEF230367
:100B8000C001112464E670E00E94A508CB010E9418
:100B90002C010E946F05F8941092B3017894089587
:100BA0000E946E0284E791E00E94D1048091B2011C
:100BB000082E000C990B01960E94FC0481E791E03D
:100BC0000E94D104E091B201EE0FFF0BEB52FE4FF9
:100BD00080819181019669F0E091B201EE0FFF0BE7
:100BE000EB52FE4F808191810E94FC048EE591E0E2
:100BF00002C08CE791E00C94D104F8948091B80184
:100C00009091B9011092B101789410920201209153
:100C1000AF013091B001821B930B03975CF40E94EB
:100C2000D0058FE596E09093C1018093C00182E5E5
:100C300096E023C00E946F0561E080E00E941303EC
:100C40008BE691E00E94D1048091B5019091B601AC
:100C50000E94FC048EE591E00E94D10460E080E0F7
:100C60000E94130381E08093B40183EB95E090939D
:100C7000C1018093C00186E995E09093C301809300
:100C8000C20180EE93E09093C9018093C8018AE885
:100C900093E09093D3018093D2011092B00110920F
:100CA000AF0108958091B201811102C089E003C0B3
:100CB0008091B20181508093B2010C94D005809153
:100CC000B201893019F41092B20105C08091B201CD
:100CD0008F5F8093B2010C94D0050E94A0081F92F0
:100CE0000F920FB60F9211242F933F938F939F93E0
:100CF000AF93BF938091EA019091EB01A091EC0139
:100D0000B091ED013091E90123E0230F2D3720F45C
:100D10000196A11DB11D05C026E8230F0296A11D55
:100D2000B11D2093E9018093EA019093EB01A09318
:100D3000EC01B093ED018091EE019091EF01A09153
:100D4000F001B091F1010196A11DB11D8093EE015A
:100D50009093EF01A093F001B093F101BF91AF9197
:100D60009F918F913F912F910F900FBE0F901F90E9
:100D700018951F920F920FB60F9211242F933F9345
:100D80004F935F936F937F938F939F93AF93BF9393
:100D9000EF93FF938091BA018F5F8093BA018091A6
:100DA000BA018E3309F058C01092BA018091B8018F
:100DB0009091B90101969093B9018093B801809107
:100DC000B7018823A1F08091B5019091B6010196F9
:100DD0009093B6018093B5010E946E028BE691E07C
:100DE0000E94D1048091B5019091B6011DC08091FF
:100DF0000201882301F10E946E028EE791E00E94B9
:100E0000D1048091000190910101019619F480E0D4
:100E100090E00AC08091B8019091B9012091000141
:100E200030910101821B930B0E94FC048EE591E03E
:100E30000E94D10411C08091B401882369F080918F
:100E4000B3018F5F8093B3018091B301853021F4AA
:100E50001092B3010E94E003FF91EF91BF91AF9117
:100E60009F918F917F916F915F914F913F912F91C2
:100E70000F900FBE0F901F9018951F920F920FB6F4
:100E80000F9211242F933F934F935F936F937F9310
:100E90008F939F93AF93BF93EF93FF930E94770439
:100EA0002091BB012031A0F48091BC0190E0FC01B5
:100EB000EE0FFF1FE257FE4F4AEF53E0518340838E
:100EC00001968F7099278093BC012F5F2093BB01FF
:100ED0000E945A04FF91EF91BF91AF919F918F9122
:100EE0007F916F915F914F913F912F910F900FBE26
:100EF0000F901F901895E2EFF1E01382128289E4BF
:100F000091E09183808388E084838FEF858389E0FB
:100F1000868384E0878385E0808786E0818787E019
:100F200082871386148615861686178681E00C94B0
:100F300075020E9485018AE00E94870080E090E0AF
:100F40002FEF3FEFFC01EE0FFF1FEB52FE4F3183FF
:100F5000208301968A309105A9F782E00E947502EC
:100F6000209103013FEF2303C001112464E670E0E8
:100F70000E94A508CB010E942C011092B000109293
:100F8000B100809170008160809370008FEF90E0DD
:100F90009093BF018093BE0180E090E04FEF5FEF40
:100FA0009C012F5F3F4FF901EE0FFF1FE254FE4FF0
:100FB00051834083880F991FFC01E653FE4F5183F4
:100FC0004083C9012530310559F71092BD011092B7
:100FD000BC011092BB0180917A00876080937A00F7
:100FE00080917C00806480937C0080917C008F7D68
:100FF00080937C0080917A00806280937A00809157
:101000007A00806880937A0080917A00886080936B
:101010007A0080917B00887F80937B007894809118
:101020007A00806480937A008AE893E09093CB0101
:101030008093CA019093CD018093CC019093D3010A
:101040008093D2019093C7018093C6019093D10100
:101050008093D0019093C5018093C4019093CF01F8
:101060008093CE0183ED94E09093C1018093C00101
:101070009093C3018093C2019093C9018093C801EA
:101080009093D3018093D2018091D401811115C036
:1010900080910302982F91609093030285600E94D3
:1010A000680260E080E10E94130304E011E0C0E008
:1010B0008091D401811114C003C00E949304FDCF1C
:1010C000F80181918F010E94A6000E9493046CE2B6
:1010D00071E080E090E00E945003CF5FC83141F79B
:1010E00060E080E00E9413038091D401811114C05C
:1010F000EC2F0C2E000CFF0BEC5FFE4F80810E944A
:10110000A6000E9493046CE271E080E090E00E94EF
:101110005003CF5FC03444F3809103028E7F8093ED
:10112000030284600E94680268EE73E080E090E051
:101130000E9450030E946E02A7CFF8940C94F50809
:1011400081E090E0F8940C94F50897FB072E16F4D4
:10115000009407D077FD09D00E94DB0807FC05D07A
:101160003EF4909581959F4F0895709561957F4FBE
:101170000895A1E21A2EAA1BBB1BFD010DC0AA1FD8
:10118000BB1FEE1FFF1FA217B307E407F50720F0F0
:10119000A21BB30BE40BF50B661F771F881F991F6B
:1011A0001A9469F760957095809590959B01AC01B4
:1011B000BD01CF010895AA1BBB1B51E107C0AA1FA7
:1011C000BB1FA617B70710F0A61BB70B881F991FE8
:1011D0005A95A9F780959095BC01CD010895EE0F21
:0E11E000FF1F0590F491E02D0994F894FFCFC5
:1011EE00FFFF015053697374656D617320456D6225
:1011FE00656269646F732C2032646F20437561746D
:10120E0072696D6573747265202D204C61626F7208
:10121E0061746F72696F20322C20636F6D69736910
:10122E006F6E203800000000002503B100DC00DBEB
:10123E0000526573657420686163653A20307300EF
:10124E004272696C6C6F3A200025004375656E74AE
:10125E00613A20005469656D706F20002D00526553
:0C126E0073657420686163653A2000001D
:00000001FF
