S013000041637469766964616420312E7372656337
S11300000C9434000C943E000C943E000C943E007E
S11300100C943E000C943E000C943E000C943E0064
S11300200C943E000C943E000C943E000C943E0054
S11300300C943E000C943E000C943E000C943E0044
S11300400C943E000C943E000C943E000C943E0034
S11300500C943E000C943E000C943E000C943E0024
S11300600C943E000C943E0011241FBECFEFD8E048
S1130070DEBFCDBF0E9440000C9450000C940000E1
S1130080259A2D9A8FE39CE90197F1F700C00000AF
S11300902D988FE39CE90197F1F700C00000F1CFA0
S10700A0F894FFCFFE
S9030000FC
